:020000040800F2
:10000000D80C0020AD0200083908000831080008AB
:1000100035080008290800083D0A00080000000013
:10002000000000000000000000000000A10800081F
:100030002D080008000000003D080008A508000881
:10004000C7020008C7020008C702000871080008BC
:10005000C7020008C7020008C7020008C70200085C
:10006000C7020008C7020008C7020008C70200084C
:10007000C7020008C7020008C7020008C70200083C
:10008000C7020008C7020008C7020008C70200082C
:10009000C7020008C7020008C7020008C70200081C
:1000A000C7020008C7020008C7020008C70200080C
:1000B000C7020008C70200087D090008C70200083F
:1000C000C7020008C7020008C7020008C7020008EC
:1000D000C7020008B5090008C7020008C7020008E7
:1000E000C702000841080008C7020008C70200084C
:1000F000C7020008C7020008C7020008C7020008BC
:10010000C7020008C7020008C7020008C7020008AB
:10011000C7020008C7020008C7020008C70200089B
:10012000C7020008C7020008C7020008C70200088B
:10013000C7020008C7020008C7020008C70200087B
:10014000C7020008C7020008C7020008C70200086B
:10015000C7020008C7020008C7020008C70200085B
:10016000C7020008C7020008C7020008C70200084B
:10017000C7020008C7020008C7020008000000000C
:10018000C7020008C7020008C7020008C70200082B
:10019000C7020008C7020008C702000800000000EC
:1001A000C7020008C7020008C702000800F002F8F2
:1001B00000F06DF80AA090E8000C82448344AAF194
:1001C0000107DA4501D100F062F8AFF2090EBAE892
:1001D0000F0013F0010F18BFFB1A43F0010318477B
:1001E000F45B0000145C00000A444FF0000C10F8AF
:1001F000013B13F0070408BF10F8014B1D1108BFA5
:1002000010F8015B641E05D010F8016B641E01F844
:10021000016BF9D113F0080F1EBF10F8014BAD1C94
:100220000C1B09D16D1E58BF01F801CBFAD505E0B2
:1002300014F8016B01F8016B6D1EF9D59142D6D30C
:10024000704700000023002400250026103A28BF34
:1002500078C1FBD8520728BF30C148BF0B60704738
:10026000642900F0A180752900F09E80782900F0B3
:10027000D780632900F06B82732900F07082002020
:1002800070471FB503F05AFF1FBD10B510BD00F039
:1002900099FA1146FFF7F5FF01F054F900F0B7FAAB
:1002A00003B4FFF7F2FF03BC00F0D1FB094880471D
:1002B00009480047FEE7FEE7FEE7FEE7FEE7FEE748
:1002C000FEE7FEE7FEE7FEE704480549054A064B60
:1002D00070470000A9080008AD010008D8040020FC
:1002E000D80C0020D8080020D80800207047000053
:1002F0000FB4044910B503AA029800F035FA10BCF7
:100300005DF814FB0C00002070B504468569006898
:10031000C10601D5302600E02026C00707D070BDF9
:10032000D4E9012130469047206A401C20626D1EAE
:10033000F6D570BD70B5044685690078C00707D151
:1003400070BDD4E9012120209047206A401C206222
:100350006D1EF6D570BD70B50C460546012A05D058
:100360002878800600D5EA69002302E0012305E031
:100370005B1C934202D2E05C0028F9D1A869E61820
:10038000C01AA861286A184428622846FFF7BCFFF3
:1003900004E0D5E9012114F8010B9047B442F8D3E9
:1003A0002846FFF7C7FF70BD2DE9F041064600243F
:1003B00010687529314616A510D0AFF300800028CB
:1003C00002DA404213A507E031688A0701D512A579
:1003D00002E0490704D511A5012401E0AFF3008034
:1003E00000210A2206F1240709E0B0FBF2FCB0FB71
:1003F000F2F302FB1C00303078541846491C0028E8
:10040000F3D123462A463046BDE8F04100F03CB91E
:10041000000000002D0000002B0000002000000064
:1004200070B504460D4621461068AFF30080218860
:10043000090502D50F4A7A4402E00E4A7A440E3288
:10044000002104F1240305E000F00F060009965D89
:100450005E54491C0028F7D120780023000704D5FA
:10046000702D02D009B1022311322046BDE8704040
:1004700000F00AB9D05600002DE9F05F8946044625
:100480004FF0000ADFF874B1FB44C0F820A020460A
:10049000E1688847002874D0252806D0D4E90121D6
:1004A0009047206A401C2062F1E700265F46204604
:1004B000E16888472028054607DB312D05D27819E9
:1004C00010F8200C08B10643F1E7B00701D526F07B
:1004D0000406C4F81CA00027C4F818A02A2D09D0CF
:1004E000284600F0ADFA38B304EB8708303DC8F871
:1004F000185019E059F8041B204604EB870291615B
:10050000E1688847012F054618D1E069002820DA04
:1005100026F020061DE0D8F8180000EB800005EB5F
:1005200040003038C8F818002046E1688847054682
:1005300000F086FA0028EED1012F0AD02E2D08D126
:100540002046E16888477F1C0546022F46F02006BA
:10055000C4DBA069002803DA404246F00106A0612E
:10056000F00701D026F010066C2D0BD0682D09D0B5
:100570004C2D39D06A2D35D0742D35D07A2D33D00D
:1005800016E038E0E1682F4620468847B842054625
:1005900009D16C2F26D04FF48060E16806432046D5
:1005A0008847054604E06C2F1AD04FF4807006434C
:1005B0000DB3A5F14100192802D8203546F4006694
:1005C0004A462946204626604E46FFF749FE80B13E
:1005D00001280BD0F61D26F0070000F1080956E7A8
:1005E0004020E4E78020D8E70020D6E706F10409A0
:1005F0004DE7284652E7206ABDE8F09FA656000066
:100600004FF0013C50F8042B51F8043B9A4221D1A1
:10061000A2EB0C03934313EACC1317D150F8042B2D
:1006200051F8043B9A4215D1A2EB0C03934313EA11
:10063000CC130BD150F8042B51F8043B9A4209D14A
:10064000A2EB0C03934313EACC13DBD04FF0000072
:10065000704700BFD01A01BAB1FA81F101F0180158
:1006600022FA01F0CB40C1F12001DBB2C0B2C01AC6
:100670002CFA01F3D11A914311EAC311E6D1704764
:1006800070477047704770472DE9F0470D4699460F
:100690009246044600F124080168880604D5E06902
:1006A00021F01001216000E00120A84201DD471B7C
:1006B00000E00027A1697A1902EB0900081AA0617D
:1006C0002078C00602D42046FFF71EFE002608E070
:1006D000D4E901211AF806009047206A401C761CD4
:1006E00020624E45F4DB2078C0060AD52046FFF78D
:1006F0000BFE06E0D4E9012130209047206A401C1F
:100700002062381EA7F10107F4DC07E0D4E90121DB
:1007100018F805009047206A401C2062281EA5F1A9
:100720000105F3DC2046FFF705FE2078000602D520
:100730000220BDE8F0870120FBE710B5436913B143
:10074000AFF3008001E0FFF706FE012010BD127834
:1007500000F124010A7000224A700122EDE71168BD
:100760004FF0FF32E9E70000074B70B50D467B44C0
:1007700000F011F80446284600F020F810B14FF0C0
:10078000FF3070BD204670BD8707000001694A1C1C
:1007900002610878704700B58FB0CDE901310021C2
:1007A000059105497944CDE9031011466846FFF7E4
:1007B00063FE0FB000BD0000E5FFFFFF007B00F00F
:1007C00080007047754600F02BF8AE46050069467C
:1007D000534620F00700854618B020B5FFF774FD9A
:1007E000BDE820404FF000064FF000074FF0000832
:1007F0004FF0000B21F00701AC46ACE8C009ACE8B3
:10080000C009ACE8C009ACE8C0098D46704710B516
:100810000446AFF300802046BDE81040FFF740BD1E
:10082000004870477404002000BFFEE700BFFEE7E9
:1008300000BFFEE700BFFEE700BFFEE700BFFEE728
:1008400010B54FF4807001F0BBFD30B14FF48070F3
:1008500001F0AEFD03A0FFF74BFD4FF4003000F0B8
:10086000E7FA10BD414C41524D30210D0A00000005
:1008700010B54FF4806001F0A3FD48B14FF48060E3
:1008800001F096FD00BF0221044800F076FB00BF96
:100890004FF4800000F0CCFA10BD0000000C0240C4
:1008A00000BFFEE77047000008B53048006840F41C
:1008B00070002E4908602E48006840F001002C4965
:1008C000086000BF2A48006800F002000028F9D044
:1008D00000BF27480830006840F0800024490831F4
:1008E00008600020009002E00098401C00900098F2
:1008F0005028F9D31E480830006840F090001C4989
:10090000083108600020009002E00098401C009030
:1009100000985028F9D300BF15480830006820F02F
:100920000300134908310860114800681149084064
:100930000F4908600846006820F480200860002005
:100940000B490831086000BF0948083000680020E2
:100950000028F9D108480649091D0860002004490B
:100960000C31086002F052F808BD000088ED00E08C
:1009700000380240FFFFF6FE1030002410B50121C0
:100980000A4802F06AF901280BD109490869804731
:100990000021064802F044F84FF47A71034802F04F
:1009A00039F80121014802F055F910BD0008004056
:1009B0007800002010B51D491D4802F0D6FA10B38A
:1009C0001B4802F0D5F9C4B21A48008800F4004070
:1009D000C8B91848008800F4804060B10A2C03D0E0
:1009E00000201449088020E01248008840F40040AC
:1009F0001049088019E00D2C06D10E48008840F4FB
:100A000080400C49088010E00A480088C0F30D00BF
:100A100009490C5407480088401C064908800846CC
:100A20000088C72801DD0020088010BD05030500EF
:100A300000100140100000209801002000BFFEE7D8
:100A400030380A2801D2012070470020704700BFCB
:100A5000704700001CB5324800683249884202D015
:100A60002F48006878B900202F490978CDE9001097
:100A70002D48047804EBD4704110022329480278F1
:100A8000002001F005F92848047804EBD4704110E7
:100A90002548037825A20C2001F048F92048006879
:100AA0002349884202D01E48006878B900201E49B8
:100AB0000978CDE900101C48047804EBD47041108B
:100AC00002231B480278122001F0E2F8164804784D
:100AD00004EBD47041101448037814A21E2001F0D6
:100AE00025F90F4800681349884202D00C48006875
:100AF00078B900200C490978CDE900100A4804783B
:100B000004EBD470411002230A480278242001F03B
:100B1000BFF800F0F9FF642000F020F91CBD0000D0
:100B20007001002003000020740100203A00000042
:100B300004000020050000201CB53B480078401C44
:100B400039490870084600780A2190FBF1F201FB50
:100B5000120028B9354B364A3649374801F03AFC7D
:100B6000364800683449884202D034480068D0B919
:100B7000002033490978CDE900103148047804EBAE
:100B8000D470411002232C480278002001F080F834
:100B90002B48047804EBD47041102948037829A22B
:100BA000102001F0C3F8254800682249884202D08D
:100BB00022480068D0B9002021490978CDE9001009
:100BC0001F48047804EBD4704110022319480278BE
:100BD000182001F05DF81A48047804EBD470411035
:100BE0001748037817A2282001F0A0F813480068DE
:100BF0000F49884202D01148006888B90020104986
:100C00000978CDE900100E48047804EBD470411047
:100C1000022307480278302001F03AF800F074FF10
:100C2000642000F09BF81CBD070000200600002097
:100C300005000020040000200300002070010020B7
:100C4000750100203A0000001CB5284800682849BA
:100C5000884202D02548006858B900202549097803
:100C60000223CDE90010224802780821002001F07B
:100C70000FF82048037820A20821182001F056F828
:100C80001A4800681D49884202D01848006858B9BF
:100C90000020184909780223CDE90010174802788E
:100CA0000821242000F0F4FF1248037812A2082142
:100CB0003C2001F03BF80D4800681149884202D001
:100CC0000A48006858B900200A4909780223CDE98A
:100CD00000100B4802780821482000F0D9FF00F0EE
:100CE00013FF642000F03AF81CBD000070010020E2
:100CF00003000020760100203A00000004000020DC
:100D00000500002010B50948007820B1012805D061
:100D1000022809D105E0FFF79DFE05E0FFF70CFF73
:100D200002E0FFF791FF00BF00BF10BD6C01002083
:100D30004FF0E021096941F004014FF0E022116118
:100D4000054908601146096941F0010111616FF020
:100D50007F415161704700000800002010B5044633
:100D60004FF47A7104FB01F000F002F810BD0000AE
:100D700070B5034600224FF0E02675690D4E3668C7
:100D800003FB06F44FF0E026B16910E04FF0E026D7
:100D9000B06988420BD0884202D20E1A324402E077
:100DA0002E1A0E4432440146A24200D300E0EDE781
:100DB00000BF70BD0800002010B50F480078401C2F
:100DC0000D490870084600780A2190FBF1F201FBFA
:100DD000120028B9094B0A4A0A490B4801F0FAFAED
:100DE00005480078052190FBF1F201FB120008B9DB
:100DF000FFF788FF10BD000007000020060000205C
:100E000005000020040000200300002010B500F0C1
:100E1000A1FD102303A20521282000F087FF00F088
:100E200073FE10BD4E6F7465426F6F6B0000000063
:100E30000149086070470000143C014010B52D4B7B
:100E40001B6883432B4C2360231D1B688343241D95
:100E50002360231D1B688343241D2360231D1B68FF
:100E60008343241D236011B101290ED105E0214BDC
:100E70001B6803431F4C236008E01E4B1B1D1B68AF
:100E800003431C4C241D236000E000BF00BF32B1AF
:100E9000012A11D0022A1CD0032A27D127E0154BA2
:100EA00008331B680343134C08342360231D1B685D
:100EB0008343241D23601BE00E4B08331B688343D0
:100EC0000C4C08342360231D1B680343241D23603E
:100ED0000EE0084B08331B680343064C08342360BC
:100EE000231D1B680343241D236001E000BF00BFD6
:100EF00000BF10BD003C014070B504460D4600BF68
:100F00000621054801F0B1FF0028F9D0E1B20248FE
:100F100001F033FF204670BD00100140F0B50346DC
:100F20001C6A5D6A00200DE00126864016403EB135
:100F300087000F26BE40B443860001FA06F634430C
:100F4000461CB0B20828EFD3082011E001268640E5
:100F500016405EB1A0F10806B7000F26BE40B543AB
:100F6000A0F10806B60001FA06F63543461CB0B2F9
:100F70001028EBD31C625D62F0BDC16270470AB1FC
:100F8000816100E08162704702461069084008B143
:100F9000012070470020FCE7F0B504460D461646D8
:100FA0002168E268002019E0012787401F409FB1B7
:100FB0004FEA400C032707FA0CF7B943470005FA3C
:100FC00007F739434FEA400C032707FA0CF7BA43F7
:100FD000470006FA07F73A43471CB8B21028E3D394
:100FE0002160E260F0BDF0B50C461546012C03D13E
:100FF00046681E43466002E046689E43466082683B
:1010000000210DE001268E401E403EB14F00032618
:10101000BE40B2434E0005FA06F632434E1CB1B252
:101020001029EFD38260F0BD10B50220FFF7A0FEBB
:1010300010BD000010B540F6014001F031F840F657
:10104000014001F02DF84FF48073012211460D4844
:10105000FFF7A2FF4FF48073022200210948FFF737
:10106000C2FF4FF40073012211460648FFF794FFB8
:101070004FF40073022201210248FFF7B4FF00F091
:1010800063F810BD0004024070B50446002526E058
:1010900000BFE00928B1012251021648FFF76FFF97
:1010A00005E000224FF400711248FFF768FF00BF0F
:1010B000FFF7BAFF00BF012211020E48FFF75FFFE2
:1010C00000BFFFF7B1FF00BF00224FF48071094855
:1010D000FFF755FF00BF6006040E681CC5B2082D5F
:1010E000D6DB00BF012251020248FFF748FF00BFD4
:1010F00070BD00000004024010B500BF0122510283
:101100001048FFF73CFF00BF00BF012211020D484D
:10111000FFF735FF00BFFFF787FF00BF00224FF446
:1011200000710848FFF72BFF00BFFFF77DFF00BFEE
:1011300000224FF480710348FFF721FF00BFFFF743
:1011400073FF10BD0004024010B500BF00224FF431
:1011500000710C48FFF713FF00BFFFF765FF00BFEA
:10116000012211020748FFF70AFF00BFFFF75CFFEB
:1011700000BF012251020348FFF701FF00BFFFF744
:1011800053FF10BD0004024010B5002400BF01222F
:1011900051020D48FFF7F3FE00BFFFF745FF00BF08
:1011A000012211020848FFF7EAFE00BFFFF73CFFEB
:1011B00000BF00224FF480710348FFF7E0FE00BF3C
:1011C000FFF732FF204610BD0004024010B5044670
:1011D000124951F8240012A1FFF712FA10B9FFF7D3
:1011E000EBFD1AE00D4951F824000FA1FFF708FAB2
:1011F00010B9FFF70BFE10E0084951F824000DA1CB
:10120000FFF7FEF948B900F0A5FB102309A205215C
:10121000282000F08BFD00F077FC10BD7801002045
:10122000436C6F636B0000004E6F7465426F6F6BB1
:101230000000000041444320436865636B65720011
:1012400010B540F6044000F02BFF40F6044000F0DB
:1012500027FF40F6044000F023FF40F6044000F072
:101260001FFF40F6044000F01BFF40F6014000F075
:1012700017FF4FF4406000F013FF4FF400430122CA
:1012800000211548FFF788FE4FF40053012200218A
:101290001148FFF781FE4FF40063012200210E4840
:1012A000FFF77AFE4FF40073012200210A48FFF78E
:1012B00073FE8023012200210748FFF76DFE012302
:1012C0001A4600210548FFF767FE01231A46002150
:1012D0000348FFF761FE10BD001002400004024009
:1012E0000000024070B50446002514B101204949B0
:1012F00008704848007800285CD04FF40041464808
:10130000FFF742FE08B34FF400514348FFF73CFE9D
:10131000D8B14FF400614048FFF736FEA8B14FF452
:1013200000713D48FFF730FE78B180213A48FFF761
:101330002BFE50B101213948FFF726FE28B10121CB
:101340003748FFF721FE002834D10A20FFF706FDB9
:101350000020304908704FF400412F48FFF714FE79
:1013600000B901254FF400512B48FFF70DFE00B9DD
:1013700002254FF400612848FFF706FE00B9032557
:101380004FF400712448FFF7FFFD00B904258021C8
:101390002148FFF7F9FD00B9052501211F48FFF796
:1013A000F3FD00B9062501211D48FFF7EDFD70BBD7
:1013B00007252CE04FF400411748FFF7E5FD012811
:1013C00025D141031448FFF7DFFD01281FD1C102D9
:1013D0001148FFF7D9FD012819D141020E48FFF746
:1013E000D3FD012813D180210B48FFF7CDFD012843
:1013F0000DD101210948FFF7C7FD012807D10121BF
:101400000748FFF7C1FD012801D1024908702846AD
:1014100070BD0000120000200010024000040240D5
:101420000000024010B540F6034000F039FE40F6DF
:10143000034000F035FE40F6034000F031FE40F678
:10144000034000F02DFE40F6014000F029FE40F67A
:10145000014000F025FE02231A4601213748FFF71C
:101460009BFD02231A4600213448FFF7BCFD0823E8
:10147000022201213148FFF78FFD082302220021BB
:101480002E48FFF7B0FD2023022201212B48FFF751
:1014900083FD2023022200212848FFF7A4FD80239A
:1014A000022201212548FFF777FD80230222002137
:1014B0002248FFF798FD1023022201212048FFF760
:1014C0006BFD1023022200211D48FFF78CFD4023F5
:1014D000022201211A48FFF75FFD4023022200216A
:1014E0001748FFF780FD00BF002202211348FFF7D5
:1014F00046FD00BF00BF002208211048FFF73FFD56
:1015000000BF00BF002220210C48FFF738FD00BFBC
:1015100000BF002280210948FFF731FD00BF00BF56
:10152000002210210648FFF72AFD00BF00BF00225D
:1015300040210348FFF723FD00BF10BD000C02400F
:1015400000040240F020FFF7F3FB4FF4E13001F01C
:101550009BFC782002F020F9FFF764FF00F05FFAAF
:10156000FFF76EFE00F07EFE0021042001F012F96C
:1015700000F088F81BE00020FFF7B4FE0C4908706B
:101580000846007800F06AF80A48007820B9084850
:10159000007800F027F907E006480078012803D119
:1015A00005480078FFF712FE6420FFF7D7FBE2E75B
:1015B00000000020010000200200002008B50020EB
:1015C0001D237E2202210090052000F00BFA00F07E
:1015D000B9F80548007810B900F024F801E000F0EF
:1015E00005F800F091FA08BD9401002010B50B48F1
:1015F0000078401E0A4951F820200C2302211420B3
:1016000000F094FB06480549097850F821200C2386
:101610001021142000F08AFB10BD00000200002001
:101620007801002010B50B480B49097850F82120AB
:101630000C230221142000F079FB064906480078AB
:10164000401C51F820200C231021142000F06EFBC8
:1016500010BD0000780100200200002010B50446F3
:10166000062C0BD10648007840B1002004490870D0
:1016700000F070F900F092F8FFF7A0FF10BD000035
:101680000100002010B500F089F8FFF797FF10BDAA
:1016900008B500201D237E2202210090052000F0C5
:1016A000A1F91348007828B111480078401E10496C
:1016B000087002E006200E49087000201D237E22DB
:1016C00011210090052000F08DF900200E237E22CC
:1016D00002210090052000F085F9002005490870DE
:1016E00000F030F8FFF79EFF00F00EFA08BD000092
:1016F000020000209401002008B500201D237E2256
:1017000002210090052000F06DF90C480078401C83
:10171000072805D209480078401C0849087002E0F3
:1017200000200649087001200549087000F00AF8F9
:10173000FFF75CFF00F0E8F908BD000002000020A0
:1017400094010020F8B51348007808B9002000E0A3
:101750000F2011490870002419E00F480078C01DBF
:10176000001BC5B20C48007808302044C6B20120E6
:101770001021A1EB4401CAB20F21A1EB440100905A
:10178000C8B23346294600F02DF9601CC4B2052CBE
:10179000E3DBF8BD940100209501002008B501208D
:1017A0000023822219460090184600F01BF9012000
:1017B0001E23822219460090002000F013F9012018
:1017C0001E23002211460090104600F00BF9012064
:1017D0001E237F2200210090104600F003F900F044
:1017E00093F908BD10B50446012C04D0022C0ED08C
:1017F000032C28D119E015480078401C13490870C3
:1018000000F0A8F812480078FFF7E0FC1BE0FFF7B3
:101810003FFF3220FFF7A2FA0E480D4A127850F827
:1018200022100DA0FEF764FD0DE0FFF765FF3220EA
:10183000FFF794FA0748064A127850F8221006A0DB
:10184000FEF756FD00BF00BF10BD000001000020E4
:1018500002000020780100205B4442475D20506F69
:10186000696E746572206E6F7720706F696E747325
:1018700020746F3A2025730D0A0000002DE9F04115
:1018800003460D46164600240027A0462A48006855
:1018900000F4E060B0F5E06F03D100BF4FF0040842
:1018A00030E02548006800F4E060B0F5C06F03D177
:1018B00001274FF0030825E01F48006800F4E060AE
:1018C000B0F5A06F02D10227B8461BE01A480068A5
:1018D00000F4E060B0F5806F03D103274FF00108FA
:1018E00010E01548006800F4E060B0F5407F03D1D7
:1018F00004274FF0000805E04FF4A06000F020F846
:101900000227B846C7F1040005FA00F4C8F1040143
:101910000F20C8403040044324010848C45403F059
:101920001F01012088405911890001F1E021C1F80F
:101930000001BDE8F08100000CED00E000E400E0F3
:1019400002490143024A1160704700000000FA0595
:101950000CED00E070B500240CE0002506E000204E
:10196000074901EB85010855681CC5B2802DF6DBDF
:10197000601CC4B2082CF0DB00F0C6F870BD00009B
:1019800060020020F0B5144600267F2801DC1F29E4
:1019900000DDF0BD0B46CF1701EB5777C7F3C70249
:1019A000CF1701EB5777FF10A1EBC707FDB201235B
:1019B000AB40DEB24CB10A4B03EB80039B5C33437C
:1019C000074F07EB8007BB5408E0054B03EB800390
:1019D0009B5CB343024F07EB8007BB5400BFD8E7C3
:1019E000600200202DE9F04706460F4690469946D2
:1019F000DDF820A034460CE03D4606E0524629467C
:101A00002046FFF7BFFF681CC5B24D45F6DD601CE0
:101A1000C4B24445F0DD00F077F8BDE8F08710B5BA
:101A2000FFF708FB0021AE2000F0AFF90021D52020
:101A300000F0ABF90021502000F0A7F90021A82008
:101A400000F0A3F900211F2000F09FF90021D3200E
:101A500000F09BF90021084600F097F90021402092
:101A600000F093F900218D2000F08FF9002114205F
:101A700000F08BF90021202000F087F900210220DE
:101A800000F083F90021A12000F07FF90021C82097
:101A900000F07BF90021DA2000F077F90021022024
:101AA00000F073F90021812000F06FF90021EF2090
:101AB00000F06BF90021D92000F067F90021F12036
:101AC00000F063F90021DB2000F05FF900213020F5
:101AD00000F05BF90021A42000F057F90021A620B6
:101AE00000F053F90021AF2000F04FF9FFF732FF6B
:101AF00010BD10B50246012000E050430B1EA1F1BD
:101B00000104E1B2F9D110BD70B500242BE004F15D
:101B1000B001C8B2002100F038F90021084600F0F9
:101B200034F90021102000F030F9FFF7E5FA7820B1
:101B3000FFF7AAFAFFF728FB4020FFF7A5FAFFF707
:101B400023FB002509E0094901EB8501085DFFF74A
:101B50009BFAFFF719FB681CC5B2802DF3DBFFF77A
:101B6000F3FA601CC4B2042CD1DB70BD600200200B
:101B70002DE9FE4F80460D4616461C46DDF8309096
:101B8000AB46002001902046E31704EB5373DB10B3
:101B900021464FEAE47C04EB5C7C4FEAEC0CA4EBBE
:101BA000CC0CBCF1000F02D04FF0010C01E04FF063
:101BB000000C6344224604EBD27C4FEA6C0C03FB1E
:101BC0000CF3DBB20093A6F12000C6B2281920283E
:101BD00001DDBDE8FE8F0C2C06D106EB460029493D
:101BE00001EB8000019010E0102C04D1264800EB9E
:101BF0000610019009E0182C06D106EBC600234917
:101C000001EB8000019000E0E3E7002734E0019859
:101C1000C05D02904FF0000A28E0029800F08000BA
:101C200028B14A4629464046FFF7ACFE0AE0B9F122
:101C3000000F01D1012000E0002002462946404665
:101C4000FFF7A0FE02984006000E0290681CC5B285
:101C5000A5EB0B00A04205D15D4608F1010000F0A4
:101C6000FF0806E00AF1010000F0FF0ABAF1080FD0
:101C7000D3DB00BF781CC7B200988742C7DB00BF28
:101C8000A7E7000046410008BA450008AA4B000833
:101C90002DE9FF4F83B0074691461E46DDE9105AF5
:101CA000BAF1000F01D1012000E0002002900024D1
:101CB00037E0301B401EC1B20A20FFF71AFFB9FB04
:101CC000F0F00A21B0FBF1F201FB1208029828B1F2
:101CD000B8F1000F02D1701EA04212D10120AB4614
:101CE00005EBDB71491001FB04710090C8B208F1EB
:101CF0003001CAB22B460499FFF73AFF0120029047
:101D00000DE00120AB4605EBDB71491001FB0471CE
:101D10000090C8B22B4630220499FFF729FF601CBF
:101D2000C4B2B442C5DB07B0BDE8F08FF8B50646D3
:101D30000F4615461C4621E004EBD4714910C1F151
:101D40008001B14202DA00263819C7B2C4F140005E
:101D5000B84204DA002006460746FFF7FBFD0120E3
:101D600000902A78234639463046FFF701FF204687
:101D700004EBD07106EB6101CEB26D1C28787E2891
:101D800002DC28782028D7DAF8BD70B505460C4665
:101D9000FFF7B2F97820FFF777F9FFF7F5F91CB9EB
:101DA0000020FFF771F902E04020FFF76DF9FFF71F
:101DB000EBF92846FFF768F9FFF7E6F9FFF7C4F9F2
:101DC00070BD00000348006840F48070014908605D
:101DD00070470000007000402DE9F04F8CB00646BF
:101DE00000200A903EA090E8004CC068CDE905BEF6
:101DF000CDF810A007900FF2EC0ADAE9000ACDE95D
:101E0000020A0FF2E00ADAE9000ACDE9000A3848CE
:101E10000068C0F381000B900B9820B1012804D01A
:101E2000022828D103E0334927E0334925E0304830
:101E3000001F006800F03F072D48001F0068C0F336
:101E4000881C2B48001F0068C0F30140401C4FEA6B
:101E500040092748001F006800F48008B8F5800F8B
:101E600001D1254B00E0234BB3FBF7F000FB0CF056
:101E7000B0FBF9F101E01F4900BF00BF1C4800683A
:101E8000C0F3031404A8055D21FA05F218480068A0
:101E9000C0F3822402A8055D22FA05F009901448D7
:101EA0000068C0F342341DF8045022FA05F008908F
:101EB00036B1012E06D0022E06D0032E0AD106E03E
:101EC0000A9108E00A9206E009980A9003E008984F
:101ED0000A9000E000BF00BF0A980CB0BDE8F08F88
:101EE00000000000000000000102030406070809CA
:101EF000083802400024F40040787D010146074A7A
:101F000002EB9110D0F8000801F01F0301229A4063
:101F1000104008B1012070470020FCE7003002406B
:101F2000074A02EB9011D1F8001800F01F030122BC
:101F30009A401143024B03EB9012C2F8001870470D
:101F400000300240F0B506460024002700251C2E74
:101F50007DD007DCB6B3102E10D0182E67D01A2E05
:101F600076D176E0B6F5E05F19D0B6F5E85F4CD0F3
:101F7000A6F5405010380028F2D134E004E01120DA
:101F8000FFF7BCFF0546641C1DB94FF6FF70844285
:101F9000F5D11120FFF7B2FF00B101277AE005E08B
:101FA00041F60140FFF7AAFF0546641C1DB96FF01A
:101FB00070408442F4D141F60140FFF79FFF00B129
:101FC000012767E0FFE704E00120FFF797FF0546E0
:101FD000641C15B9B4F5A06FF6D10120FFF78EFF90
:101FE00000B1012756E005E043F21100FFF786FF3C
:101FF0000546641C15B929488442F5D143F2110005
:10200000FFF77CFF00B1012744E005E041F60150F5
:10201000FFF774FF0546641C15B920488442F5D1CA
:1020200041F60150FFF76AFF00B1012732E004E0FA
:102030001920FFF763FF0546641C15B91748844251
:10204000F6D11920FFF75AFF00B1012722E010E076
:102050001FE004E01B20FFF751FF0546641C15B983
:102060000E488442F6D11B20FFF748FF00B101273C
:1020700010E004E01D20FFF741FF0546641C15B980
:1020800006488442F6D11D20FFF738FF00B1012732
:1020900000E000BF00BF3846F0BD0000FFFF0F00AA
:1020A000074A02EB9011D1F8001800F01F0301223B
:1020B0009A401143024B03EB9012C2F8001870478C
:1020C00000300240074A02EB9011D1F8001800F0EE
:1020D0001F0301229A409143024B03EB9012C2F876
:1020E0000018704700300240074A02EB9011D1F807
:1020F000001800F01F0301229A401143024B03EB2A
:102100009012C2F80018704700300240044A11686B
:1021100021F4407141EA0002014B1A60704700004F
:1021200070380240014608687047000030B5002250
:10213000D1E900342343CC6823430C7A4FF07C551B
:1021400005EA046423434C7A2D1205EA0444234330
:102150008C7A4FF4FE4505EA04242343CC7A04F03C
:102160007F0443EA0402CA23084C236053232360FC
:10217000012803D1054B083B1A6002E0034B1B1FEB
:102180001A60FF23014C236030BD0000242800406A
:1021900018B502464FF40043009300200021CA23E3
:1021A0001A4C236053232360012A14D1174B1C3B84
:1021B0001B6823F48073154C1C3C236000BF134B39
:1021C000183B1B6803F00101009B5B1E0093B3B139
:1021D0000029F4D013E00D4B1C3B1B6823F4007363
:1021E0000A4C1C3C236000BF084B183B1B6803F0E3
:1021F0000201009B5B1E00930BB10029F4D001B1DA
:102200000120FF23014C236018BD0000242800405A
:10221000CA210D4A116053211160012808D10A49D1
:102220001C39096841F48071074A1C3A116007E0C3
:1022300005491C39096841F40071034A1C3A1160D0
:10224000FF21014A1160704724280040014600BF69
:10225000081100EB8000420001F00F001044C0B2F2
:10226000704700002DE9F0410025002600270024DA
:1022700041F21C00FFF714FFFFF7A4FD2948006896
:1022800084B24FF4E050FFF74BFE4FF4E050FFF7FD
:1022900059FEB8B94FF4E850FFF742FE4FF4E8504A
:1022A000FFF750FE10B90120BDE8F0814FF4007037
:1022B000FFF72CFF40F23F16632547F25100194902
:1022C000086009E04FF48070FFF720FFFF267F25AC
:1022D00047F250001349086041F60F40FFF7E0FE57
:1022E00000F094F910480068C0F3012747F250004D
:1022F000844202D0401C844200D18FB90B48058132
:102300004681002009490861002332223B21172021
:1023100000F018FA03230D220B21182000F0EAF92F
:102320000020C1E7502800407038024060040020BF
:1023300030B50021002200230024154D29682D1DF1
:102340002A68134D10352B68114D08352C68150C73
:102350000570C2F30425457002F03F058570C2F395
:102360004235C570C1F305450571C1F306254571B8
:1023700001F07F058571C3F306450581C3F30E05A2
:10238000458101F48005C56004F04005056130BD5C
:10239000002800400146002204E0501CC2B2A1F116
:1023A0000A00C1B20A29F8DA100741EA1060704742
:1023B000024909688143014A116070470C280040B6
:1023C00001460020024A12680A4002B1012070470B
:1023D0000C2800402DE9F04104460D4616461F46E4
:1023E0000C48FFF7A5FF0B490879FFF72FFF207076
:1023F00008494879FFF72AFF287006498879FFF7CE
:1024000025FF30700348C068C0F387503870BDE8BE
:10241000F081000060040020F0B503460C4615462C
:10242000642093FBF0F0C6B2642093FBF0F700FB4E
:102430001730C1B2132E02DD01F16400C1B20846AB
:10244000CF1701EB977701EBA707BAB2072092FBF2
:10245000F0F700FB172082B25719601EDFF834C076
:102460001CF80000384482B2CF1701EB9777BF10F9
:10247000A1EB87071FB9032C01DA501E82B2072097
:1024800092FBF0F700FB172082B202B90722D0B20C
:10249000F0BD0000FE5A0008F0B5044600250026F5
:1024A000002720784FF47F0101EA0040E1784FF4E3
:1024B000604202EA4131084361784FF4F85202EA7F
:1024C00001210843A17801F03F0140EA0107217989
:1024D0004FF47C1202EA0141E068084361794FF44D
:1024E000FE4202EA01210843A17901F07F0140EA9E
:1024F0000106CA201E490860532008604FF6FF708D
:102500001B4908390860091D08602220184920313C
:102510000860091D086000F02DF805461DB32089EC
:102520004FF4FE0101EA00406189C1F30E01084346
:102530000F49143908600E4824380660001D0760F2
:10254000001D006820F0400009491C390860084659
:1025500000682169084306491C39086000F02EF81C
:1025600000F054F80546FF20014908602846F0BDF8
:102570002428004008B54FF480420092002100203A
:102580000D4A126802F040029AB90B4A126842F0F2
:102590008002094B1A6000BF074A126802F040012E
:1025A000009A521E00920AB10029F5D011B1012003
:1025B00000E0012008BD00000C280040034800682E
:1025C00020F0800001490860704700000C2800409E
:1025D000CA210D4A1160532111600B491C39096849
:1025E00020F004021143084A1C3A116006491C31CC
:1025F000096800F004021143034A1C321160FF21F4
:10260000014A1160704700002428004008B54FF4CB
:102610000042009200210020134A126802F02002BA
:1026200002BBCA22104B1C331A6053221A600E4A96
:10263000121D126822F020020B4B1B1D1A6000BFF6
:10264000094A121D126802F02001009A521E0092DF
:102650000AB10029F4D001B10120FF22024B1C3342
:102660001A6000E0012008BD082800402DE9FF4164
:1026700007460C4615461E460120FFF789FD00203F
:1026800000904FF0804001903846FFF783FE8DF8B0
:1026900008002046FFF77EFE8DF809002846FFF768
:1026A00079FE8DF80A003046FFF774FE8DF80B00B6
:1026B0000020039069460120FFF738FD4FF4805059
:1026C000FFF786FF0120FFF7A3FD4FF48070FFF7AF
:1026D0006FFE4FF40030FEF7ABFB002211464FF4C3
:1026E0000030FEF7ABFB022201212920FFF7C6F8DC
:1026F000BDE8FF812DE9F04107460C4615461E4610
:102700004FF000083846FFF745FE0D490870204697
:10271000FFF740FE0A4948702846FFF73BFE08498C
:10272000887006F00700C8700846FFF7B5FE8046BF
:10273000B8F1000F02D10120BDE8F0810020FBE7D5
:10274000600400202DE9F04107460C4615461E4660
:102750004FF000083846FFF71DFE0D49087120466E
:10276000FFF718FE0A4948712846FFF713FE08498B
:10277000887106F00100C8600846FFF78DFE8046AC
:10278000B8F1000F02D10120BDE8F0810020FBE785
:102790006004002070B505460C4600F04FF828464E
:1027A00000F01EF8204600F087F84FF48060FFF735
:1027B000FFFD4FF48040FFF70BFF00F069F84FF486
:1027C0008000FEF735FB002211464FF48000FEF733
:1027D00035FB022211460320FFF750F870BD0000C0
:1027E00018B5014600204FF4804300930022CA230D
:1027F000114C23605323236000BF0F4B183B1B6811
:1028000003F00402009B5B1E00930BB1002AF4D07E
:102810000AB900200CE0084B1C3B1B6823F007039F
:10282000054C1C3C236023461B680B43236001209E
:10283000FF23014C236018BD2428004008B5002068
:102840004FF4804200920021CA22104B1A6053229A
:102850001A600E4A1C3A126822F480620B4B1C3B31
:102860001A6000BF094A183A126802F00401009A7F
:10287000521E00920AB10029F4D009B9002000E0EC
:102880000120FF22014B1A6008BD000024280040EF
:10289000CA20084908605320086006481C380068B0
:1028A00040F4806003491C390860FF20014908603A
:1028B000704700002428004018B5014600204FF45E
:1028C000804300930022CA230D4C236053232360CE
:1028D00000BF0B4B183B1B6803F00402009B5B1E00
:1028E00000930BB1002AF4D00AB9002003E0044B96
:1028F000103B19600120FF23014C236018BD00002C
:1029000024280040002000213D4A126842F4803211
:102910003B4B1A6000BF401C394A126802F4003178
:1029200019B94FF6FF729042F5D1354A126802F498
:10293000003232B900BF324A126802F40032002A73
:10294000F9D02F4A4032126842F080522C4B40336B
:102950001A602C4A126842F440422A4B1A60284AF4
:1029600008321268264B08331A601A46126842F47D
:1029700000421A601A46126842F4A0521A60224AB3
:102980001B1F1A601A1F126842F080721B1F1A6008
:1029900000BF1B4A126802F00072002AF9D0194ADF
:1029A000126842F48032174B1A6000BF154A526811
:1029B00002F48032002AF9D0124A126842F400323E
:1029C000104B1A6000BF0F4A526802F40032002A0E
:1029D000F9D00B4A0832126822F00302084B083380
:1029E0001A601A46126842F002021A6000BF044AD6
:1029F0000832126802F00802002AF8D0704700007E
:102A000000380240007000401978400A10B5FFF706
:102A100079FF10BDC162704701460020486A7047C7
:102A20004162704710B504465C49601A8C426FD011
:102A300019DC5B49A4EB01008C424ED009DCB4F1F7
:102A4000804F2ED057482044A0B3B0F5806F72D18C
:102A50003AE0B0F5806F49D0B0F5006F4FD0B0F5D7
:102A6000406FF4D17BE0B0F5923F5BD009DCB0F56C
:102A7000806F73D0B0F5644F0AD0B0F5684F5AD16B
:102A800047E0B0F5943F57D0B0F5963F53D15CE0A6
:102A90004FF41060FFF728FB4FF41060FFF712FBB4
:102AA00079E04FF40060FFF71FFB4FF40060FFF781
:102AB00009FB70E0FFE740F60100FFF715FB40F669
:102AC0000100FFF7FFFA66E040F60200FFF70CFB9B
:102AD00040F60200FFF7F6FA5DE040F60300FFF76C
:102AE00003FB40F60300FFF7EDFA54E040F6040064
:102AF000FFF7FAFA40F60400FFF7E4FA4BE040F67D
:102B00000500FFF7F1FA40F60500FFF7DBFA42E0B7
:102B10002EE040F60110FFF7E7FA40F60110FFF74C
:102B2000D1FA38E04FF41160FFF7DEFA4FF411608C
:102B3000FFF7C8FA2FE02DE040F61110FFF7D4FAA6
:102B400040F61110FFF7BEFA25E040F61210FFF72D
:102B5000CBFA40F61210FFF7B5FA1CE011E040F690
:102B60000600FFF7C1FA40F60600FFF7ABFA12E0E5
:102B700040F60700FFF7B8FA40F60700FFF7A2FAA1
:102B800009E040F60800FFF7AFFA40F60800FFF74B
:102B900099FA00E000BF00BF10BD0000001C00401B
:102BA000000C004000FCFFBF016841F00101016022
:102BB000704700000A8882621D4A90420ED0B0F130
:102BC000804F0BD01B4A904208D01B4A904205D040
:102BD0001A4A904202D01A4A90420BD1026822F05F
:102BE0007002026002684B881A43026002688B8898
:102BF0001A4302608A68C262124A90420AD0124A9C
:102C0000904207D0026822F4407202600268CB88CA
:102C10001A430260064A904202D0094A904201D10A
:102C20000A7B0263426942F0010242617047000080
:102C3000000001400004004000080040000C00407B
:102C4000000401400010004000140040C2680A4324
:102C5000C2607047CA43026170470246D06800EA0A
:102C600001031069084010B10BB10120704700202A
:102C7000FCE700210180418081804FF6FF71816077
:102C80000021C180017370472DE9F04704460D46CD
:102C90000027B846B94600263349601A8C4235D021
:102CA0000CDC32482044E8B1B0F5806F1FD0B0F59D
:102CB000006F21D0B0F5406F32D122E0B0F5806FC7
:102CC00029D0B0F5184F03D0B0F51C4F28D104E03F
:102CD0000320FFF781F8074623E00320FFF77CF885
:102CE00007461EE00220FFF777F8074619E00220AA
:102CF000FFF772F8074614E00220FFF76DF8074669
:102D00000FE00220FFF768F807460AE00220FFF70D
:102D100063F8074605E00220FFF75EF8074600E08B
:102D200000BF00BFE06800F4004070B1780000EB25
:102D30005500B0FBF5F64FF6F07006EA0008C6F352
:102D4000420948EA0900A0600CE007EB5500B0FB1F
:102D5000F5F64FF6F07006EA000806F00F0948EAAB
:102D60000900A060BDE8F0870078004000BCFFBF0C
:102D700001464868C0F308007047C1F3080242608A
:102D80007047000010B504463349601A8C424DD09C
:102D90000CDC32482044E0B1B0F5806F22D0B0F5B1
:102DA000006F31D0B0F5406F52D136E0B0F5806F92
:102DB00045D0B0F5184F03D0B0F51C4F48D11AE0FC
:102DC00040F60410FFF790F940F60410FFF77AF987
:102DD0003FE040F61100FFF787F940F61100FFF7DA
:102DE00071F936E040F61200FFF77EF940F6120066
:102DF000FFF768F92DE040F60510FFF775F940F68A
:102E00000510FFF75FF924E040F61300FFF76CF9B7
:102E100040F61300FFF756F91BE040F61400FFF7E9
:102E200063F940F61400FFF74DF912E040F61E007A
:102E3000FFF75AF940F61E00FFF744F909E040F6A3
:102E40001F00FFF751F940F61F00FFF73BF900E0C4
:102E500000BF00BF10BD00000078004000BCFFBFF5
:102E6000C16841F40051C160704710B5024602EBE1
:102E70009110006801F01F040123A340184008B11D
:102E8000012010BD0020FCE710B504464FF440605F
:102E9000FFF706F94FF44060FFF702F941F2041022
:102EA000FFF7FEF84FF4007207212748FEF736F8C7
:102EB0004FF4806207212448FEF730F84FF4007386
:102EC000012202212048FEF767F84FF40073022226
:102ED00000211D48FEF787F84FF48063012202218C
:102EE0001948FEF759F84FF4806302220021164872
:102EF000FEF779F81548FFF745FF21461348FFF71D
:102F0000C3FE0021114800F05CF800210F4800F0DA
:102F100068F800210D4800F044F808210B4800F043
:102F200058F80421094800F044F840F205310748F8
:102F300000F00EF8032211462520FEF79FFC0348FF
:102F4000FFF78EFF10BD000000000240001001409E
:102F500010B500EB9112126801F01F040123A34089
:102F60001A4300EB91131A6010BD70B5024600239E
:102F70000024C1F38910105801F01F060125B54047
:102F800000EA050302EB91500068C1F304460125F5
:102F9000B54000EA050414B10BB1012070BD00205A
:102FA000FCE7C26822F4C062C260C2680A43C26021
:102FB00070470A460021C16821F004011143C16035
:102FC0007047026922F44052026102690A430261B9
:102FD00070470A460021C16821F008011143C16011
:102FE0007047C26822F48052C260C2680A43C2605D
:102FF0007047000030B595B0054613AB12AA09A979
:10300000284600F03FFA044614B1204615B030BD02
:103010000020149026E0224909689DF8502001EB19
:10302000C20113AB11AA486801A900F02BFA0446AB
:103030000CB12046EAE709A901A800F0A7FC60B995
:103040009DF844009DF84810884201DD0220DDE72C
:103050009DF85000124988750AE09DF85000401C08
:10306000C0B214900E48007D9DF850108842D2DC0A
:1030700000BF0B48007D9DF85010884201D104200C
:10308000C4E714A9284600F0DDFA04460CB1204636
:10309000BCE79DF85000024948750020B6E70000E3
:1030A000780000202DE9F0419AB09C48847D007D95
:1030B000A04202DC1AB0BDE8F0819849096801EB32
:1030C000C40106AB07AA486808A900F0DBF908A903
:1030D00093A0FDF70DF9002644E09048008B0121F4
:1030E000B1400840D8B122218FA0FDF701F9304648
:1030F00000F042FB89492431471839468BA0FDF77F
:10310000F7F8222188A0FDF7F3F8304600F034FBF1
:1031100082492431084410A941F8260018E03046BD
:1031200000F02AFB7D492431085810A941F82600F7
:103130007A48C07D30B910A850F826107CA0FDF761
:10314000D7F805E010A850F826107AA0FDF7D0F8BF
:103150009DF81C00401EB04202D078A0FDF7C8F8D0
:10316000701CC6B29DF81C008642B6DB74A0FDF749
:10317000BFF800F0C9FF6948407D0B280DD2DFE899
:1031800000F0060D151E27323F4E5F72870063491F
:10319000096851F834008047054690E05F4A12689C
:1031A00052F8341010988847054688E05B4B1B683E
:1031B00053F83420DDE91001904705467FE0574F72
:1031C0003F6857F8343010A807C89847054676E09E
:1031D000DFF848C1DCF800C05CF8347010A80FC8F4
:1031E000B84705466BE01498DFF830C10090DCF872
:1031F00000C05CF8347010A80FC8B84705465EE000
:10320000DDE91401DFF814C1CDE90001DCF800C0EC
:103210005CF8347010A80FC8B84705464FE0DDE9E8
:1032200014121698DFF8F4C0CDE900120290DCF811
:1032300000C05CF8347010A80FC8B84705463EE0DF
:10324000DDE91423DDE91610DFF8D0C0CDE9002355
:10325000CDE90210DCF800C05CF8347010A80FC88B
:10326000B84705462BE0DDE91523DDE91710CDE968
:103270000123CDE903101498DFF8A0C00090DCF81A
:1032800000C05CF8347010A80FC8B847054616E0B7
:10329000DDE91623DDE91810CDE90223CDE904109C
:1032A000DDE91401DFF874C0CDE90001DCF800C0ED
:1032B0005CF8347010A80FC8B847054600BF00BFBF
:1032C00000F0C6FE9DF8180001280CD11348C07DFF
:1032D00020B929461BA0FDF70BF807E029461BA0E3
:1032E000FDF706F802E018A0FDF702F80B4890F889
:1032F000EC0088B10948D0F8F0000A21B0FBF1F2E7
:1033000001FB12070548D0F8F000B0FBF1F83A468F
:10331000414611A0FCF7ECFF00BFCBE6780000208F
:103320000D0A2573280000002563000025730000A6
:10333000256C640030582558000000002C00000067
:10334000290000003D256C753B0D0A003D305825D5
:10335000583B0D0A0000000046756E6374696F6E7D
:103360002052756E2054696D653A25642E253164AE
:103370006D730D0A00000000F0B5034615460020ED
:103380000022002600245BE01F782C2F01D104B915
:1033900001221F78292F01D01F780FB904B950E0FE
:1033A000002E3AD11F78302F02DB1F78392F17DD1E
:1033B0001F782D2F14D01F782B2F11D01F78612F3D
:1033C00002DB1F78662F0BDD1F78412F02DB1F7891
:1033D000462F05DD1F78582F02D01F78782F0CD18B
:1033E00002B12EE01F78612F03DB1F78203F0F70A2
:1033F00001E01F780F70491C1FE01F78222F04D1B5
:1034000002B11EE00126012417E01F78202F14D0FE
:103410001F782C2F11D0FF2613E01F78222F00D108
:10342000002402B10DE044B11F785C2F02D15B1C77
:10343000471CF8B21F780F70491C471CF8B25B1C80
:10344000A2E700BF00270F702E70F0BD10B5044634
:10345000002010700BE020780870641C491C107864
:10346000401C10701078984201DB012010BD2078BC
:10347000202802D020780028EDD10020087000BF5D
:10348000F4E700002DE9FF4F85B08046894600270C
:10349000002004900390012002904FF0000B0025C3
:1034A00044461DE02078202816D005F07F0005282E
:1034B00012DA0DB945F0800505F07F00042803D12C
:1034C00020782A2800D00EE0207805F07F010DF842
:1034D0000100681CC5B202E0852D00D103E0641C28
:1034E00020780028DED100BF8DB1002005F07F01DB
:1034F0000DF8010051A1684600F048FA18B9002102
:103500000898017002E001210898017000254FF031
:10351000000A444614E0641C0AF1010000F0FF0AAE
:103520002078202802D020782A2809D1204600F0CF
:103530009FF90646282E03D02A2E01D0CDF810A0E0
:103540002078282802D020780028E4D14446049826
:1035500010B10498401C04444FF0000A002654E0C7
:10356000207810B94FF0010A50E02078282803D1C4
:1035700016B9781CC7B213E02078292808D13EB9C3
:1035800017B1781EC7B201E04FF0010A47B93DE01C
:103590002078222804D10EB9012000E00020064640
:1035A00047B9207820282FD0207889F8000009F129
:1035B000010929E020782C2804D101200290681C00
:1035C000C5B214E02078202811D0207828280ED009
:1035D0004DB9BBF1050F06DA20780DF80B000BF1A1
:1035E000010000F0FF0B0298401CC0B20290012FB6
:1035F0000AD10298022807D10298401CC0B202905A
:103600000398401CC0B20390641CA9E700BF039854
:10361000012809D100200DF80B0008A1684600F030
:10362000B5F908B9002003900799039808700020A5
:1036300089F80000504609B0BDE8F08F766F6964E4
:10364000000000002DE9F043B5B005460F46002408
:10365000002604E000213D488155701CC6B20A2EA8
:10366000F8DB06E06D1C287818B9012035B0BDE8FC
:10367000F08328782828F5D16D1C61E034AA6946CA
:103680002846FFF779FE064635449DF8D00020B164
:10369000012827D0FF284CD149E09DF8000000B355
:1036A00033A9684600F0EFF806460EB10220DDE7C8
:1036B000204600F061F825490A31339A0A50A1F1F9
:1036C0002400008B0121A140884320491A39088336
:1036D00004211E480155601CC4B20A2C01DD0320E0
:1036E000C4E726E0684600F06DF9401C00F0FF08D2
:1036F000204600F041F815490A3100EB010949461E
:10370000684600F054F911481A38018B0120A04096
:10371000014388B20D491A3908830C4800F8048027
:10372000601CC4B20A2C01DD03209FE701E00220E7
:103730009CE700BF2878292801D0287800B900E04C
:103740009CE700BF3C70002090E700009200002042
:103750000020074A128802F400423AB1044A117864
:103760000022044B5A541846014B1A80704700003F
:10377000100000209801002002460020002105E0F2
:10378000044B5B5C0344D8B24B1CD9B29142F7DBCB
:10379000704700009200002010B50446204600F05B
:1037A00079FC01200149C87510BD00007800002097
:1037B00010B50246012000E050430B1EA1F10104A8
:1037C000E1B2F9D110BD000070B50026FFF7C0FFCF
:1037D000064606B970BD17488168304688470446DA
:1037E0001CB91449C868804721E0304600F0F6F85B
:1037F0000546012D00D02C46CCB1012C06D0022C60
:1038000008D0032C0AD0042C10D10BE00AA0FCF73E
:103810006FFD0BE00BA0FCF76BFD07E00CA0FCF7C5
:1038200067FD03E00DA0FCF763FD00BF00BF00BF14
:10383000D0E7000078000020BAAFCAFDB4EDCEF3A7
:10384000210D0A00B2CECAFDB4EDCEF3210D0A005F
:10385000B2CECAFDCCABB6E0210D0A00CEB4D5D2B3
:10386000B5BDC6A5C5E4B5C4BAAFCAFD210D0A00F1
:103870000146491C00E0491C0878202801D1002994
:10388000F9D1087870472DE9F04F05460F4600261C
:103890004FF00A09B3462C460020386034E0207807
:1038A000392802DC2078302811DA28782D2802D037
:1038B00028782B2800D156B12078462802DC2078C1
:1038C000412804DA2078582817D1012E15D1207804
:1038D000412801DB4FF0100928782D2803D14FF043
:1038E000020B6D1C0FE028782B2803D14FF0010B41
:1038F0006D1C08E0701CC6B205E0207800B904E039
:103900000120BDE8F08F641CC9E700BF2C46B9F167
:10391000100F0FD1032E01DA0220F2E720783028B1
:1039200006D16078582803D1A41CB01EC6B204E0AA
:103930000320E6E70EB90420E3E71BE00EB1701E9A
:10394000C6B22078392806DC2078302803DB2078BE
:10395000A0F1300A02E02078A0F1370A314648464B
:10396000FFF726FF39680AFB00103860641C2078D6
:1039700000B900E0E2E700BFBBF1020F04D13868F4
:10398000C0F10008C7F800800020BAE702460AE04C
:1039900010780B78984201D001207047107800B958
:1039A00002E0521C491CF3E700BF0020F5E706E0E7
:1039B00002780A70027802B902E0401C491CF7E75D
:1039C00000BF70470146002005E00A7802B903E015
:1039D000421CD0B2491CF8E700BF704710B58CB04C
:1039E00004461E230BAA03A92046FFF72FFD0090D3
:1039F000009810B101200CB010BD9DF82C000444BB
:103A000000200B900EE063489DF82C2050F8221007
:103A100003A8FFF7BBFF00B908E09DF82C00401C8D
:103A2000C0B20B909DF82C000728ECD300BF9DF886
:103A30002C00072879D2DFE800F00405395B8BAB56
:103A4000AA0000BF54A0FCF753FC54A0FCF750FCA4
:103A500062A0FCF74DFC71A0FCF74AFC7F48FCF724
:103A600047FC7FA0FCF744FC8DA0FCF741FC95A02F
:103A7000FCF73EFC99A0FCF73BFC9EA0FCF738FC51
:103A8000A2A0FCF735FCA8A0FCF732FCADA0FCF727
:103A90002FFCBAA0FCF72CFCC6A0FCF729FCD2A096
:103AA000FCF726FCDDA0FCF723FC96E23AA0FCF72D
:103AB0001FFCEAA0FCF71CFC00200B900EE0F7486E
:103AC00000689DF82C2000EBC2004168F4A0FCF7D0
:103AD0000FFC9DF82C00401CC0B20B90EF48007DFD
:103AE0009DF82C108842EADC2BA0FCF701FC74E264
:103AF00029A0FCF7FDFBECA0FCF7FAFB00200B90E3
:103B00001CE0E64909689DF82C2001EBC20101ABDD
:103B100002AA486803A9FFF7B5FCE04800689DF8D1
:103B20002C1050F8312003A900E054E2EEA0FCF77D
:103B3000DFFB9DF82C00401CC0B20B90D748007DE5
:103B40009DF82C108842DCDC13A0FCF7D1FB44E28A
:103B500011A0FCF7CDFB0BAA03A92046FFF70CFC34
:103B60009DF82C0090B9694603A8FFF78CFE0B90D6
:103B70009DF82C0020B9E1A00099FCF7B9FBCCE13D
:103B80009DF82C00042804D0022034E7C3E1F6E1BC
:103B9000C8E1B9E1140000200D0A00002D2D2D2DE3
:103BA0002D2D2D2D2D2D2D2D2D2D2D2D2D2D2D2D45
:103BB0002D2D2D2D55534D4152542D2D2D2D2D2D67
:103BC0002D2D2D2D2D2D2D2D2D2D2D2D2D2D2D2D25
:103BD0002D2D2D2D2D2D200D0A0000002020202020
:103BE00055534D415254CAC7D2BBB8F6C1E9C7C9F3
:103BF000B5C4B4AEBFDAB5F7CAD4BBA5BDBBD7E96F
:103C0000BCFE2CCDA8B9FDCBFC2CC4E3BFC9D2D4DB
:103C1000CDA8B9FDB4AEBFDA200D0A00D6FACAD6D7
:103C2000B5F7D3C3B3CCD0F2C0EFC3E6B5C4C8CEAA
:103C3000BACEBAAFCAFD2CB2A2D6B4D0D02ED2F230
:103C4000B4CB2CC4E3BFC9D2D4CBE6D2E2B8FCB823
:103C5000C4BAAFCAFDB5C4CAE40D0A00445B00088B
:103C6000B8F6BAAFCAFDD7EEB6E0D6A7B3D63130B4
:103C7000B8F6CAE4C8EBB2CECAFD2CB2A2D6A7B33E
:103C8000D6BAAFCAFDB7B5BBD8D6B5CFD4CABE2E4B
:103C9000D0C2D4F6B2CECAFDCFD4CABE200D0A001F
:103CA000BDF8D6C6C9E8D6C3B9A6C4DC2CD0C2D4E8
:103CB000F6BDF8D6C6D7AABBBBB9A6C4DC2E0D0A82
:103CC0000000000055534D415254D3D037B8F6CFC1
:103CD000B5CDB3C3FCC1EE3A0D0A00003F3A202037
:103CE00020202020BBF1C8A1B0EFD6FAD0C5CFA2CA
:103CF0000D0A000068656C703A202020BBF1C8A155
:103D0000B0EFD6FAD0C5CFA20D0A00006C6973746B
:103D10003A202020BFC9D3C3B5C4BAAFCAFDC1D0B1
:103D2000B1ED0D0A0A00000069643A20202020202D
:103D3000BFC9D3C3BAAFCAFDB5C44944C1D0B1ED00
:103D40000D0A0A006865783A20202020B2CECAFD0C
:103D50003136BDF8D6C6CFD4CABE2CBAF3B8FABF36
:103D6000D5B8F12BCAFDD7D6BCB4D6B4D0D0BDF8E7
:103D7000D6C6D7AABBBB0D0A0A0000006465633A29
:103D800020202020B2CECAFD3130BDF8D6C6CFD417
:103D9000CABE2CBAF3B8FABFD5B8F12BCAFDD7D634
:103DA000BCB4D6B4D0D0BDF8D6C6D7AABBBB0D0A1A
:103DB0000A00000072756E74696D653A312CBFAAF5
:103DC000C6F4BAAFCAFDD4CBD0D0BCC6CAB13B3062
:103DD0002CB9D8B1D5BAAFCAFDD4CBD0D0BCC6CAE5
:103DE000B13B0D0A0A000000C7EBB0B4D5D5B3CC87
:103DF000D0F2B1E0D0B4B8F1CABDCAE4C8EBBAAFF2
:103E0000CAFDC3FBBCB0B2CECAFDB2A2D2D4BBD8ED
:103E1000B3B5BCFCBDE1CAF82E0D0A002D2D2D2D29
:103E20002D2D2D2D2D2D2D2D2D2D2D2D2D2D2D2DC2
:103E30002D2D2D2D2D2D2D2D2D2D2D2D2D2D2D2DB2
:103E40002D2D2D2D2D2D2D2D2D2D2D2D2D2D2D2DA2
:103E50002D2D2D2D2D200D0A000000002D2D2D2D96
:103E60002D2D2D2D2D2D2D2D2D2D2D2D2D2D2D2D82
:103E70002D2D2D2D2DBAAFCAFDC7E5B5A52D2D2DA4
:103E80002D2D2D2D2D2D2D2D2D2D2D2D2D2D2D2D62
:103E90002D2D2D2D2D2D2D2D200D0A0078000020EB
:103EA00025730D0A000000002D2D2D2D2D2D2D2DFB
:103EB0002D2D2D2D2D2D2D2D2D2D2D2D2D2D2D2D32
:103EC0002DBAAFCAFD204944202D2D2D2D2D2D2D8D
:103ED0002D2D2D2D2D2D2D2D2D2D2D2D2D2D2D2D12
:103EE0002D2D2D2D200D0A00257320696420697366
:103EF0003A0D0A3058253038580D0A004845583ACE
:103F0000305825580D0A000035A0FCF7F1F90120C2
:103F10003849C87501E002206DE5AFF28430FCF746
:103F2000E7F95AE0AFF29030FCF7E2F90BAA03A9E7
:103F30002046FFF721FA9DF82C00C8B9694603A86E
:103F4000FFF7A1FC0B909DF82C0020B92AA0009946
:103F5000FCF7CEF90EE09DF82C00042801D00220D9
:103F600049E528A0FCF7C4F900202249C87501E002
:103F7000022040E5AFF2E030FCF7BAF92DE0AFF2F5
:103F8000E830FCF7B5F90BAA03A92046FFF7F4F9CE
:103F90009DF82C00C8B9694603A8FFF774FC0B9084
:103FA0009DF82C0078B91349009881F8EC00084678
:103FB00090F8EC0018B118A0FCF79AF907E01DA0E2
:103FC000FCF796F903E0022015E5022013E51FA097
:103FD000FCF78EF901E001200DE500BF00200AE5A5
:103FE0003136BDF8D6C6B2CECAFDCFD4CABE210D79
:103FF0000A000000780000204445433A256C750D06
:104000000A0000003130BDF8D6C6B2CECAFDCFD40A
:10401000CABE210D0A00000052756E2054696D65FC
:104020002043616C63756C6174696F6E204F4E0D37
:104030000A00000052756E2054696D652043616C62
:1040400063756C6174696F6E204F46460D0A0000FF
:1040500010B501210D48FEF700FE012808D10C48DB
:10406000D0F8F0004FF6FF7108440949C1F8F0009C
:104070000648FEF7D1FC0649D1F8F010084404497F
:10408000C1F8F0000846D0F8F00010BD000800406C
:10409000780000201FB5044641F20200FEF700F848
:1040A0001848FEF7BFFC6846FEF7E3FD04EBC400CA
:1040B00000EB04100121C1EB800080B2ADF80000DC
:1040C0000020ADF80200ADF804004FF47A700290C1
:1040D0000020ADF806008DF80C0069460948FEF78F
:1040E00069FD01210748FEF7B5FD01210548FEF7EE
:1040F000ADFD032211461E20FDF7C0FB0148FEF76F
:1041000053FD1FBD0008004010B501210848FEF70F
:10411000A1FD4FF6FF710648FEF77CFC0021044824
:10412000FEF77EFC00200349C1F8F00010BD00003E
:104130000008004078000020016070474FF0407098
:10414000E1EE100A704700000000000000000000CF
:104150000000000000003F400000000000000000E0
:104160003000400030004000000009000BC03D005E
:104170000BC03D00090018C024407FE02240318080
:104180000000180024C01B000D8032400180038015
:104190001C4027401C8007400040100060000000C9
:1041A0000000000000000000000000001F80204010
:1041B00040200000402020401F8000000000090037
:1041C00006001F80060009000000040004003F8074
:1041D0000400040000000010006000000000000067
:1041E00000000400040004000400040000000000BB
:1041F00000400000000000000000002001C0060098
:104200003800400000001F802040204020401F80D8
:104210000000000010403FC000400000000018C037
:1042200021402240244018400000108020402440BB
:1042300024401B80000002000D0011003FC001401F
:1042400000003C80244024402440238000001F8044
:10425000244024403440038000003000200027C068
:104260003800200000001B802440244024401B8094
:1042700000001C0022C0224022401F8000000000DD
:104280000000084000000000000000000000046082
:10429000000000000000000004000A00110020805F
:1042A0004040090009000900090009000000000061
:1042B0004040208011000A00040018002000234024
:1042C0002400180000001F802040274029401F4084
:1042D0000000004007C039000F0001C0004020402E
:1042E0003FC0244024401B8000001F80204020400D
:1042F00020403080000020403FC0204020401F80F0
:10430000000020403FC024402E4030C0000020402C
:104310003FC024402E00300000000F0010802040DD
:1043200022403380020020403FC0040004003FC010
:104330002040204020403FC020402040000000603E
:10434000202020203FC02000200020403FC02440EB
:104350000B0030C0204020403FC0204000400040C3
:1043600000C03FC03C0003C03C003FC000002040F4
:104370003FC00C4023003FC020001F802040204051
:1043800020401F80000020403FC02440240018002F
:1043900000001F802140214020E01FA0000020409D
:1043A0003FC02440260019C0004018C024402440CB
:1043B000224031800000300020403FC020403000CB
:1043C000000020003F80004000403F80200020008F
:1043D0003E0001C0070038002000380007C03C0044
:1043E00007C038000000204039C0060039C0204016
:1043F00000002000384007C0384020000000304056
:1044000021C02640384020C00000000000007FE0AE
:10441000402040200000000070000C00038000409D
:1044200000000000402040207FE00000000000006D
:1044300020004000200000000000001000100010CC
:1044400000100010001000000000400000000000FC
:104450000000000002800540054003C0004020002D
:104460003FC004400440038000000000038004407B
:1044700004400640000000000380044024403FC088
:10448000004000000380054005400340000000009C
:1044900004401FC0244024402000000002E00550DA
:1044A00005500650042020403FC00440040003C0D3
:1044B00000400000044027C0004000000000001041
:1044C0000010041027E00000000020403FC0014021
:1044D000070004C00440204020403FC0004000408E
:1044E000000007C0040007C0040003C0000004402F
:1044F00007C00440040003C00040000003800440E3
:10450000044003800000041007F0045004400380BE
:104510000000000003800440045007F00010044035
:1045200007C00240040004000000000006400540EF
:10453000054004C00000000004001F80044000404B
:104540000000040007800040044007C00040040051
:10455000070004C0018006000400060001C0070037
:1045600001C006000000044006C0010006C004406F
:1045700000000410071004E00180060004000000A1
:10458000044005C006400440000000000000040094
:104590007BE040200000000000000000FFF0000071
:1045A0000000000040207BE004000000000040000C
:1045B00080004000200020004000000000000000BB
:1045C00000000000000000000000000000000000EB
:1045D0001FCC000C000000000000000008003000AC
:1045E00060000800300060000000022003FC1E2074
:1045F000022003FC1E200220000000000E181104FF
:104600003FFF10840C78000000000F0010840F386A
:1046100000C0077818840078000000780F8410C468
:1046200011240E9800E4008400080800680070005F
:10463000000000000000000000000000000000007A
:1046400007E0181820044002000000004002200487
:10465000181807E00000000000000240024001803E
:104660000FF00180024002400000008000800080C6
:104670000FF800800080008000000001000D000E97
:10468000000000000000000000000000008000802A
:10469000008000800080008000800000000C000C82
:1046A00000000000000000000000000000060018EC
:1046B00000600180060018002000000007F00808D4
:1046C00010041004080807F00000000008040804A3
:1046D0001FFC000400040000000000000E0C101479
:1046E0001024104411840E0C000000000C1810045B
:1046F0001104110412880C700000000000E0032077
:10470000042408241FFC0024000000001F981084CB
:1047100011041104108810700000000007F00888D0
:104720001104110418880070000000001C00100023
:1047300010FC13001C001000000000000E38114493
:104740001084108411440E38000000000700088C0B
:1047500010441044088807F000000000000000002A
:10476000030C030C0000000000000000000000012A
:104770000106000000000000000000000080014071
:104780000220041008081004000002200220022069
:10479000022002200220022000000000100408086D
:1047A0000410022001400080000000000E001200F2
:1047B000100C106C10800F00000003E00C1813E4C4
:1047C000142417C4082807D000000004003C03C4C8
:1047D0001C40074000E4001C000410041FFC1104EE
:1047E000110411040E880070000003E00C1810047E
:1047F0001004100410081C10000010041FFC10040A
:1048000010041004080807F0000010041FFC110435
:10481000110417C410040818000010041FFC110430
:10482000110017C010000800000003E00C1810046D
:10483000100410441C780040000010041FFC108479
:104840000080008010841FFC10040000100410047D
:104850001FFC100410040000000000030001100100
:1048600010011FFE10001000000010041FFC1104B6
:1048700003801464181C1004000010041FFC1004B2
:10488000000400040004000C000010041FFC1F00C2
:1048900000FC1F001FFC1004000010041FFC0C048F
:1048A000030000E010181FFC100007F008081004B7
:1048B00010041004080807F0000010041FFC108406
:1048C0001080108010800F00000007F008181024DE
:1048D0001024101C080A07F2000010041FFC110429
:1048E000110011C011300E0C000400000E1C110448
:1048F0001084108410441C380000180010001004AC
:104900001FFC100410001800000010001FF8100415
:104910000004000410041FF8100010001E0011E035
:10492000001C007013801C0010001FC0103C00E031
:104930001F0000E0103C1FC000001004180C1634CB
:1049400001C001C01634180C100410001C00130420
:1049500000FC13041C00100000000804101C10646C
:10496000108413041C041018000000000000000054
:104970007FFE4002400240020000000030000C00B8
:1049800003800060001C00030000000040024002A1
:1049900040027FFE00000000000000000000200038
:1049A0004000400040002000000000010001000124
:1049B0000001000100010001000100004000400072
:1049C000200000000000000000000000009801240A
:1049D00001440144014400FC000410001FFC008855
:1049E00001040104008800700000000000700088CD
:1049F0000104010401040088000000000070008828
:104A00000104010411081FFC0004000000F8014427
:104A100001440144014400C80000000001040104F5
:104A20000FFC1104110411001800000000D6012928
:104A30000129012901C90106000010041FFC00849E
:104A400001000100010400FC00040000010419043D
:104A500019FC000400040000000000000003000135
:104A60000101190119FE0000000010041FFC0024C0
:104A7000004001B4010C0104000000001004100407
:104A80001FFC0004000400000000010401FC0104FC
:104A9000010001FC0104010000FC010401FC008490
:104AA00001000100010400FC0004000000F8010402
:104AB00001040104010400F80000010101FF008568
:104AC00001040104008800700000000000700088EC
:104AD00001040104010501FF00010104010401FCBE
:104AE00000840104010001800000000000CC0124CA
:104AF00001240124012401980000000001000100AC
:104B000007F80104010400000000010001F800049E
:104B100000040004010801FC000401000180017090
:104B2000000C001001600180010001F0010C003058
:104B300001C00030010C01F0010000000104018CF3
:104B400000740170018C01040000010101810171F8
:104B5000000E001801600180010000000184010CBA
:104B6000013401440184010C000000000000000039
:104B7000000001003EFC4002400200000000000076
:104B80000000FFFF000000000000000040024002A3
:104B90003EFC0100000000000000000060008000FA
:104BA00080004000400020002000000000000000C5
:104BB00000000000000000000000000000000000F5
:104BC00000000000000000000000000000000000E5
:104BD000000000000000000000000000000F80380E
:104BE0000FFE380F803800000000000000000000B9
:104BF00000000000000000000100000600000C00A2
:104C0000003800003100000600000C0000380000F1
:104C10003000000000000000000061800067F8071D
:104C2000F980006180006180006180006180006720
:104C3000F807F9800061800000000000000000001B
:104C400001C0E003E0F00630080418081FFFFE046E
:104C50000E080787F00381E000000000000001F06B
:104C600000060C00040408060C7001F9C0000E00D8
:104C7000003BE000EC18070808040C180003E000F3
:104C800000000001E00007F003F818041C080417F6
:104C90000807E1D003C0E00023B0003C0800200872
:104CA0000000100000000000000100003100003290
:104CB00000001C00000000000000000000000000D8
:104CC00000000000000000000000000000000000E4
:104CD000000000000000000000007F0001FFC0078E
:104CE00080F00C00181000042000020000000000FA
:104CF000002000021000040C00180780F001FFC023
:104D0000007F000000000000000000000000000024
:104D10000000000000004200006600006600003C49
:104D20000000180003FFC0001800003C00006600EF
:104D300000660000420000000000080000080000BB
:104D4000080000080000080001FFC000080000087B
:104D5000000008000008000008000000000000013A
:104D600000003100003200001C00000000000000C4
:104D70000000000000000000000000000000000033
:104D800000000800000800000800000800000800FB
:104D900000080000080000080000080000080000EB
:104DA0000000000000000000000038000038000093
:104DB00038000000000000000000000000000000BB
:104DC00000000000000000000000000600001C00C1
:104DD0000070000180000E0000380000C0000700D5
:104DE000001C0000300000000000000000007F8078
:104DF00001FFE003807006001804000804000806A4
:104E0000001803807001FFE0007F800000000000B8
:104E10000000000001000801000801000803FFF87D
:104E200007FFF8000008000008000008000000006C
:104E3000000000000001C03802C0580400980401BE
:104E400018040218040418061C1803F81801E0F8E6
:104E500000000000000000000001C0E003C0F004FA
:104E6000000804080804080806180803F41801E7F5
:104E7000F00001E00000000000000000000003005E
:104E8000000D000011000061000081080301080707
:104E9000FFF80FFFF8000108000108000000000003
:104EA000000000E007FCD0060808061008061008FD
:104EB000061008061838060FF00607C000000000AC
:104EC0000000000000003F8001FFE0038430020882
:104ED00018041008041008041008071810030FF035
:104EE0000007C000000000000000000003C0000731
:104EF00000000600000600F80607F806180006E0A5
:104F00000007000006000000000000000001E1E0D2
:104F100003F7F0063410041808041808040C0804F9
:104F20000C0806161803F3F001C1E00000000000B1
:104F30000000F80003FC30030638040208040208ED
:104F40000402080404100308F001FFC0007F000001
:104F50000000000000000000000000000000000051
:104F60000000703800703800703800000000000049
:104F70000000000000000000000000000000000031
:104F8000000000000000301A00301C00000000008B
:104F90000000000000000000000000000000000011
:104FA0000008000014000022000041000080800181
:104FB000004002002004001008000800000000006B
:104FC000000021000021000021000021000021003C
:104FD000002100002100002100002100002100002C
:104FE000000000000000000008000804001002009B
:104FF00020010040008080004100002200001400D9
:1050000000080000000000000003C00004C000040D
:105010000000080038080F380808380810000C3065
:105020000007E00003C000000000000000003F8017
:1050300000FFE0038070020F1006708804C088042F
:105040008308047F8802C09003012000FE40000016
:10505000080000180001F8003E0801C20007020025
:1050600007E20000FE00001FC80001F80000380041
:10507000000804000807FFF807FFF8040808040800
:105080000804080804080806180803F41801E7F0E3
:105090000001E0000000000000003F8001FFE0038D
:1050A00080700200180400080400080400080400CE
:1050B000100600200780C000000004000807FFF869
:1050C00007FFF804000804000804000804001802A0
:1050D000001003807001FFE0007F800000000400EA
:1050E0000807FFF807FFF804080804080804080880
:1050F000040808043E0804000806001801006000C7
:10510000000004000807FFF807FFF8040808040877
:1051100000040800040800043E0006000006000029
:10512000018000000000000000003F8001FFE0035C
:105130008070060018040008040208040208020334
:10514000F00783F000020000020004000807FFF8E7
:1051500007FFF80408080008000008000008000025
:10516000080004080807FFF807FFF804000800001B
:105170000000000004000804000804000807FFF80D
:1051800007FFF804000804000804000800000000FD
:1051900000000000000000060000070000010400FD
:1051A0000104000104000307FFFE07FFFC040000E8
:1051B00004000004000004000807FFF807FFF804DB
:1051C0000C08001800003E0004C7800503C8060054
:1051D000F804003804001800000804000807FFF86D
:1051E00007FFF8040008000008000008000008009D
:1051F0000008000008000018000060000000040023
:105200000807FFF807800807FC00007FC00003F8CC
:105210000007C000780007800807FFF807FFF804C0
:10522000000804000807FFF807000803C00000E0BA
:1052300000003800001E000007000001C00400F05C
:1052400007FFF8040000000000007F8001FFE0037A
:105250008070060018040008040008060018030007
:105260003001FFE0007F8000000004000807FFF825
:1052700007FFF80404080404000404000404000404
:105280000400060C0003F80001F00000000000001C
:1052900000007F8001FFE003807006008804008822
:1052A0000400C806003C03003E01FFE6007F8400C6
:1052B000000004000807FFF807FFF80408080408C6
:1052C00000040C00040F00040BC00610F003F038BB
:1052D00001E00800000800000001E0F803F03006DB
:1052E0003010041808041808040C08040C080206FE
:1052F000180207F00781E0000000018000060000AE
:1053000004000004000004000807FFF807FFF80489
:1053100000080400000400000600000180000400F2
:105320000007FFE007FFF004001800000800000875
:1053300000000800000800000804001007FFE00457
:10534000000004000006000007E00007FE00041F44
:10535000E00001F80000380001E0043E0007C00052
:1053600006000004000004000007E00007FFC0047E
:105370001FF80007C007F80007FF80043FF8000788
:10538000C004F8000700000400000000000400084A
:1053900006001807C07805F1C8003E00001F800411
:1053A00063E80780F8060018040008000000040005
:1053B0000006000007800007E008047C08001FF8D2
:1053C0000007F800180804E00807000006000004C1
:1053D00000000000000100080600380400F8040383
:1053E000E8040F08047C0805F00807C00807001847
:1053F0000400600000000000000000000000000049
:1054000000000000003FFFFE2000022000022000FC
:105410000220000220000200000000000000000046
:1054200008000007000000C000003800000600006F
:1054300001C000003000000E00000100000000006C
:1054400000000000200002200002200002200002D4
:105450002000023FFFFE00000000000000000000EE
:105460000000000000000000000000080000100024
:105470000030000020000030000010000008000094
:105480000000000000000000010000010000010019
:105490000001000001000001000001000001000007
:1054A00001000001000001000001000000000000F8
:1054B000000000200000200000100000100000008C
:1054C00000000000000000000000000000000000DC
:1054D000000000F00019F8001B1800220800260840
:1054E000002408002410003FF8001FF80000080006
:1054F000001800000004000007FFF80FFFF000187C
:1055000018001008002008002008003018001FF0C4
:10551000000FC00000000000000007C0001FF000E6
:105520001830002008002008002008003C08001C5B
:10553000100000600000000000000000000007C034
:10554000001FF00038180020080020080020080480
:10555000101007FFF80FFFF000001000000000001F
:10556000000000000007C0001FF0001230002218E9
:10557000002208002208003208001E10000E200041
:10558000000000000000200000200800200801FFAB
:10559000F803FFF80620080420080420080720006C
:1055A00003000000000000000000000E000E6E006E
:1055B0001FF30031B10020B10020B1003191001F74
:1055C00013002E1E00200E00300000000004000812
:1055D00007FFF80FFFF8001008002000002000006F
:1055E0002008003FF8001FF800000800000000003D
:1055F00000000000002008002008002008063FF8F6
:10560000063FF80000080000080000080000000045
:105610000000000000000000000003000003002064
:1056200001002001002003063FFE063FFC000000B1
:1056300000000000000000000004000807FFF80F51
:10564000FFF8000188000300002FC00038F8002098
:1056500038002008000008000000000000000000E2
:1056600004000804000804000807FFF80FFFF80012
:1056700000080000080000080000000000000020F2
:1056800008003FF8003FF8001008002000003FF835
:10569000003FF8001008002000003FF8003FF8002D
:1056A0000008000000002008003FF8003FF800104C
:1056B00008001000002000002008003FF8001FF83C
:1056C0000000080000000000000007C0000FF0000C
:1056D00018300030080020080020080030080018AA
:1056E00030000FF00007C0000000000000002001A3
:1056F000003FFF003FFF00101100200900200800BC
:105700002008003038001FF0000FC000000000002B
:10571000000007C0001FF000381800200800200813
:10572000002009001011001FFF003FFF00000100D2
:105730000000002008002008002008003FF8003F7B
:10574000F8000808001008002008002000003000C1
:10575000003000000000000000000000000C780095
:105760001E180033080023080021080021880021AA
:10577000980030F0003860000000000000002000B9
:1057800000200000200000FFF003FFF800200800C8
:105790002008002008000030000000000000000089
:1057A00000002000003FF0007FF800001800000813
:1057B000000008002010003FF8007FF000001000FB
:1057C0000000000000002000003000003C00003F0E
:1057D000800023F0000078000070002380003C006F
:1057E000003000002000002000003C00003FE000EE
:1057F00023F80000E0002700003E00003FE0002109
:10580000F80001E0003E0000200000000000200839
:10581000002008003838003E680027800003C800D8
:105820002CF8003838002018002008000000000084
:1058300000002000003003003C01003F830023EC07
:10584000000070002380003C0000200000200000C9
:105850000000000000000000003808002038002090
:10586000F80023E8002F88003E08003808002018C0
:1058700000007000000000000000000000000000B8
:1058800000000000000008000014001FF7FC3000BA
:1058900006200002000000000000000000000000E0
:1058A000000000000000000000000000FFFFFF00FB
:1058B00000000000000000000000000000000000E8
:1058C000000000002000023000061FF7FC0014005A
:1058D00000080000000000000000000000000000C0
:1058E00000000000001800006000004000004000C0
:1058F0000020000010000008000004000004000068
:105900000C00001000000000000000000000020871
:1059100008020808040808080808100808E00FFF33
:1059200080080800080800080800080800080800A7
:105930000808000FFFFE0FFFFE080800080800100F
:1059400008001010000030000000000000000000FF
:10595000000000020000040180080F00101C80609D
:105960000081C200870200FC021FF0043C9C08205A
:105970009208009190009070009060209190109398
:10598000181C9C080C980C008004010006010004FF
:105990000000040000000000000000C00101000140
:1059A0000E0001F8003FFFFE212000011002020C52
:1059B0000E0000120007E40FFE04084008087810EB
:1059C0000847300841E01041E0104730307C183083
:1059D000E00C10000C0000040000000000000000BB
:1059E0000000000010000010800210FFFE10802850
:1059F0001080481080881087081FFC08108008104D
:105A000080081080081080081FFF88108088108090
:105A10008810808810808810FFFE30FFFC10000086
:105A20000000000000000000000000000000000076
:105A3000000003FFFE0000003000001C00000C000E
:105A4000000000000000000800000800000800003E
:105A50000800000800080800080800040800060FF5
:105A6000FFFC0FFFF8000000000000000000000035
:105A700000001000001000001000101000101000B6
:105A8000101000101008101008101004101006104C
:105A9000FFFE10FFFC111000111000121000141076
:105AA0000018100018100010100000300000100046
:105AB0000000000000000000000100400100800123
:105AC0000300010E000138007FFFFF2120000110BC
:105AD00040111C80110900100200100C0010300051
